:100000000EC020C01FC01EC01DC01CC01BC01AC017
:1000100019C018C017C016C015C014C013C01124D1
:100020001FBECFE5D2E0DEBFCDBF10E0A0E6B0E05E
:10003000E6EFF2E002C005900D92A237B107D9F7C2
:1000400024D157C1DDCF893A08F0895A8D3010F09C
:100050008D50FCCF0895DF92EF92FF920F931F9384
:10006000CF93DF931F92CDB7DEB7F82E8C01D12C42
:10007000EE24E394802F8F19861760F4F8018191A4
:100080008F018E0D6983DFDFE82E8D0DDCDFD82E2A
:100090006981F0CF8D2D8295807F8E0D0F90DF913D
:1000A000CF911F910F91FF90EF90DF900895BA9A32
:1000B000C298BB9AC398089529E100002150E9F73E
:1000C000382FFC018E2F831B861708F036C0C29A8A
:1000D000C2988191C39A99E100009150E9F7C398C1
:1000E00099E100009150E9F798E080FF12C0C29AB0
:1000F000C39829E100002150E9F7C39A29E10000E3
:100100002150E9F78695915081F7C398C29889E10B
:100110000CC0C298C39A29E100002150E9F7C398A6
:1001200029E100002150E9F7EDCF00008150E9F707
:1001300089E100008150E9F7C5CF0895BA9AC298C5
:10014000BB980895FC01C29AC298C29AC298C29AFA
:10015000C298B39963C020E030E0B39908C0203161
:1001600087E2380709F45EC02F5F3F4FF6CF233395
:10017000310508F455C02031374209F453C0C29A02
:10018000C29880E070E0282F082E000C330B261751
:1001900037070CF042C090E0B3990FC0B39905C087
:1001A000943611F09F5FFACF0895943609F43DC05C
:1001B00090E003C09931C1F19F5FB399FBCF9931B2
:1001C00099F19AE1B39902C09150E1F7C29AC298AD
:1001D00048E090E096955AE1B39B0DC0B39B02C0F6
:1001E0005150E1F7C2985AE1B3990EC05150E1F76E
:1001F0000BC0515011F0B39BFCCFC29A5AE1B39B94
:1002000002C05150E1F79068415021F7DF01A20F81
:10021000B31F9C93C2988F5FB6CF08958FEF089558
:100220008EEF08958DEF08958BEF08952FEF3AEA42
:10023000FC01318320836F73606462830895CF93E0
:10024000DF93EC016B834C8363E0029604DF8D83C4
:1002500066E0CE01DF91CF912FCF1F93CF93DF9335
:10026000EC0166E06FDF182F63E0CE010296F3DE4B
:100270009D81981305C08A818F738A83812F01C065
:1002800087EFDF91CF911F910895CF93DF93CDB783
:10029000DEB761970FB6F894DEBF0FBECDBFBA9A36
:1002A000C29805DF81E1E0E6F0E0DE011196019001
:1002B0000D928A95E1F780E31AE08A3308F080E333
:1002C00001E0080F888B60E1CE010196F5DE89EF31
:1002D00090E00197F1F700C00000115011F0802F5D
:1002E000ECCF87E893E10197F1F700C00000802F81
:0602F000E3CFF894FFCFFC
:1002F600FFFF5533313233345C48454C4C4F235F56
:020306000000F5
:00000001FF
