:10000000FEC010C10FC10EC10DC10CC10BC10AC190
:1000100009C108C107C106C105C104C103C100006F
:1000200000000000005F00000007000700147F14BC
:100030007F14242A7F2A122313086462364955222A
:10004000500005030000001C2241000041221C005A
:1000500014083E081408083E080800503000000844
:1000600008080808006060000020100804023E51E3
:1000700049453E00427F4000426151494621414589
:100080004B311814127F1027454545393C4A4949E0
:100090003001710905033649494936064949291E87
:1000A00000363600000056360000081422410014C5
:1000B0001414141400412214080201510906324993
:1000C00079413E7E1111117E7F494949363E4141B9
:1000D00041227F4141221C7F494949417F09090949
:1000E000013E4149497A7F0808087F00417F41006D
:1000F0002040413F017F081422417F404040407F23
:10010000020C027F7F0408107F3E4141413E7F097F
:100110000909063E4151215E7F0919294646494990
:10012000493101017F01013F4040403F1F204020F5
:100130001F3F4038403F63140814630708700807E6
:100140006151494543007F414100020408102000ED
:1001500041417F0004020102044040404040000150
:1001600002040020545454787F48444438384444AE
:100170004420384444487F3854545418087E0901B8
:10018000020C5252523E7F0804047800447D400025
:100190002040443D007F1028440000417F40007C07
:1001A000041804787C0804047838444444387C14E7
:1001B000141408081414187C7C08040408485454C7
:1001C0005420043F4440203C4040207C1C204020E0
:1001D0001C3C4030403C44281028440C5050503CBB
:1001E0004464544C44000836410000007F00000085
:1001F0004136080010080810087846414678112456
:100200001FBECFE5D2E0DEBFCDBF10E0A0E6B0E07C
:10021000EEE4F6E002C005900D92AE38B107D9F7D2
:10022000DBD113C2EDCEC19898E087FF02C0C39A1C
:1002300001C0C398C498880FC49A9150B1F7C19A6D
:100240000895C298F0CFC29AEECFB89AB99ABA9AE6
:10025000BB9ABC9AC09887EA91E60197F1F700C073
:100260000000C09A81E2EDDF80EBEBDF87E0E9DFA1
:1002700084E1E7DF80E2E5DF8CE0E3CFCF93DF933B
:100280001F92CDB7DEB780686983DBDF6981862F77
:1002900080640F90DF91CF91D4CF883050F428E064
:1002A00030E0281B31098FEF01C0880F2A95EAF74B
:1002B00001C08FEFC8CF0F931F93CF93DF9380526E
:1002C00090E0EC01CC0FDD1FCC0FDD1FC80FD91F54
:1002D00000E010E0F801EC0FFD1FE25EFF4F84919B
:1002E000B2DF0F5F1F4F05301105A1F780E0DF91EE
:1002F000CF911F910F91A7CFCF93DF93EC018991FD
:10030000882311F0D8DFFBCFDF91CF910895CF93F1
:10031000DF93CDB7DEB72A970FB6F894DEBF0FBED6
:10032000CDBFAC018AE0E0E6F0E0DE01119601907D
:100330000D928A95E1F7FE013196DB0120E084E021
:100340006191719190E04617570720F09F5F461B1F
:10035000570BF9CF843039F4911104C0243011F0D7
:1003600090EF01C0822F905D9D932F5F253041F764
:100370002A960FB6F894DEBF0FBECDBFDF91CF91A6
:100380000895CF93DF9300D000D000D0CDB7DEB773
:100390001E82BE016F5F7F4FBADF21E030E02C0F7D
:1003A0003D1F280F311DC901A7DF26960FB6F8940F
:1003B000DEBF0FBECDBFDF91CF910895CF93DF9306
:1003C00000D000D000D0CDB7DEB71E82BE016F5F77
:1003D0007F4F9DDFCE0101968FDF26960FB6F894F2
:1003E000DEBF0FBECDBFDF91CF9108951F93CF9396
:1003F000DF93182F60E080E041DFC8EFD1E0812F6C
:1004000022DF2197E1F7DF91CF911F91089580E0DE
:10041000EDCF1F93CF93DF93FC0187B321E030E052
:1004200002C0220F331F6A95E2F7822B87BB98B375
:10043000422F4095942398BB83E991E10197F1F70E
:1004400000C0000098B3922B98BB96E09A95F1F704
:1004500000C087B3842387BB88B3822B88BB4BE063
:1004600086B390E082239323892B19F44150C1F77E
:1004700040C08BE046B350E042235323452B19F094
:100480008150C1F736C088E2B0E090E070E067E0EC
:100490001AE0A7E046B350E042235323452B19F45A
:1004A000A150C1F728C0AAE046B350E0422353232D
:1004B000452B19F0A150C1F71EC0990F412F4A1BBF
:1004C000453008F0916061110CC0AF01470F511D1C
:1004D000EA019883743008F4B90F7F5F90E067E019
:1004E00001C061508150A9F694819B1729F08DEFCE
:1004F00003C08FEF01C08EEFDF91CF911F91089560
:10050000CF93DF93CDB7DEB72A970FB6F894DEBF4F
:100510000FBECDBFAC018AE0EAE6F0E0DE01119645
:1005200001900D928A95E1F7FE013196DB0120E002
:1005300084E06191719190E04617570720F09F5F2A
:10054000461B570BF9CF843039F4911104C0243085
:1005500011F090EF01C0822F905D9D932F5F2530A9
:1005600041F72A960FB6F894DEBF0FBECDBFDF91DC
:10057000CF910895AC01FB01339624E0942F9F7036
:100580009A3010F4905D01C0995C908384E0569598
:1005900047958A95E1F7215031972111EFCF84E0FB
:1005A0000895FC0120E08FE040E050E8E417F507F3
:1005B00030F0E41BF50B8F3021F4822F02C090E065
:1005C00001C091E0905DDB019D93BD01569547957B
:1005D0002F5F203159F70895CF93DF9300D000D0DB
:1005E0001F92CDB7DEB731DE12DF87EA91E60197C1
:1005F000F1F700C0000060E080E040DE84E790E0BA
:100600007BDE60E0CE01019604DF64E080E036DE50
:1006100081E890E071DE89819A81D0DE84E890E003
:100620006BDE65E080E02ADE87E890E065DE8B81A6
:100630009C81C4DE8AE890E05FDE9FE32DE083E0EA
:0E064000915020408040E1F7D4CFF894FFCFD6
:10064E001027E80364000A0001001027E803640085
:10065E000A00010054696E75444854205465737441
:0E066E0000483A00202500543A0020430000C6
:00000001FF
