:100000000EC020C01FC01EC01DC01CC01BC01AC017
:1000100019C018C017C016C015C014C013C01124D1
:100020001FBECFE5D2E0DEBFCDBF10E0A0E6B0E05E
:10003000E0ECF5E002C005900D92AC39B107D9F7BC
:1000400064D2BCC2DDCF1F93CF93DF93FC0187B393
:1000500021E030E002C0220F331F6A95E2F7822BC5
:1000600087BB98B3422F4095942398BB83E991E1D5
:100070000197F1F700C0000098B3922B98BB96E06F
:100080009A95F1F700C087B3842387BB88B3822B8E
:1000900088BB4BE086B390E082239323892B19F42D
:1000A0004150C1F740C08BE046B350E04223532398
:1000B000452B19F08150C1F736C088E2B0E090E0DE
:1000C00070E067E01AE0A7E046B350E04223532314
:1000D000452B19F4A150C1F728C0AAE046B350E05F
:1000E00042235323452B19F0A150C1F71EC0990F8D
:1000F000412F4A1B453008F0916061110CC0AF01DF
:10010000470F511DEA019883743008F4B90F7F5FDF
:1001100090E067E001C061508150A9F694819B177F
:1001200029F08DEF03C08FEF01C08EEFDF91CF91EB
:100130001F910895809360000895F894C39890915A
:100140006000992319F000009150FBCF98E080FFE8
:1001500002C0C39A01C0C39820916000222319F005
:1001600000002150FBCF8695915089F7C39A80916A
:100170006000882319F000008150FBCF7894089527
:10018000CF93DF93EC018991882311F0D6DFFBCF69
:10019000DF91CF9108950F931F93CF93DF93CDB746
:1001A000DEB727970FB6F894DEBF0FBECDBF8C0128
:1001B00080E289831F82C80117FF04C0882799271E
:1001C000801B910BBE016E5F7F4F33D1282F30E033
:1001D00017FF08C08DE2E1E0F0E0EC0FFD1FE20F39
:1001E000F31F8083812F8095F90187FD3196CF0120
:1001F00021E030E02C0F3D1F820F931FC1DF2796B7
:100200000FB6F894DEBF0FBECDBFDF91CF911F9127
:100210000F9108950F931F93CF93DF93CDB7DEB760
:1002200027970FB6F894DEBF0FBECDBF8C0180E2DA
:1002300089831F82C80117FF04C088279927801B64
:10024000910BBE016E5F7F4FF4D017FF08C0E1E055
:10025000F0E0EC0FFD1FE80FF11D8DE28083CE0171
:1002600001968EDF27960FB6F894DEBF0FBECDBF86
:10027000DF91CF911F910F910895CF93DF9300D01D
:1002800000D000D0CDB7DEB71E82BE016F5F7F4FBA
:10029000D0D021E030E02C0F3D1F280F311DC901C7
:1002A0006FDF26960FB6F894DEBF0FBECDBFDF918D
:1002B000CF910895CF93DF9300D000D000D0CDB779
:1002C000DEB71E82BE016F5F7F4FB3D0CE010196B5
:1002D00057DF26960FB6F894DEBF0FBECDBFDF9175
:1002E000CF910895CF93DF9300D000D01F92CDB768
:1002F000DEB71D82BE016F5F7F4F90E0D4D0CE018C
:1003000003963EDF0F900F900F900F900F90DF91AC
:10031000CF910895CF93DF9300D000D01F92CDB737
:10032000DEB71D82BE016F5F7F4FBDD0CE0101964B
:1003300027DF0F900F900F900F900F90DF91CF91CC
:100340000895CF93DF93CDB7DEB761970FB6F894DA
:10035000DEBF0FBECDBF198ABE016F5F7F4F90E039
:10036000B9D021E030E02C0F3D1F280F311DC9010D
:1003700007DF61960FB6F894DEBF0FBECDBFDF91E9
:10038000CF910895CF93DF93CDB7DEB761970FB6C6
:10039000F894DEBF0FBECDBF198ABE016F5F7F4FDD
:1003A00090E098D0CE010996EBDE61960FB6F894F6
:1003B000DEBF0FBECDBFDF91CF910895CF93DF9306
:1003C000CDB7DEB761970FB6F894DEBF0FBECDBFD5
:1003D000198ABE016F5F7F4F7DD021E030E02C0F86
:1003E0003D1F280F311DC901CBDE61960FB6F89471
:1003F000DEBF0FBECDBFDF91CF910895CF93DF93C6
:10040000CDB7DEB761970FB6F894DEBF0FBECDBF94
:10041000198ABE016F5F7F4F5DD0CE010196B0DEBD
:1004200061960FB6F894DEBF0FBECDBFDF91CF91BE
:100430000895CF93DF93CDB7DEB72A970FB6F89420
:10044000DEBF0FBECDBFAC018AE0E1E6F0E0DE0129
:10045000119601900D928A95E1F7FE013196DB012C
:1004600020E084E06191719190E04617570720F0F9
:100470009F5F461B570BF9CF843039F4911104C0AC
:10048000243011F090EF01C0822F905D9D932F5F7B
:10049000253041F72A960FB6F894DEBF0FBECDBFC8
:1004A000DF91CF910895AC01FB01339624E0942FA6
:1004B0009F709A3010F4905D01C0995C908384E045
:1004C000569547958A95E1F7215031972111EFCF45
:1004D00084E00895FC0120E08FE040E050E8E4175C
:1004E000F50730F0E41BF50B8F3021F4822F02C0AA
:1004F00090E001C091E0905DDB019D93BD015695B8
:1005000047952F5F203159F70895CF93DF9300D09F
:1005100000D01F92CDB7DEB7BB9AC39A8BE690E0AE
:100520002FDE8AE790E02CDE87EA91E60197F1F76B
:1005300000C0000080E001E0080F90E0BBDE8DE726
:1005400090E01EDE61E0CE0101967DDD182F811165
:1005500018C080E890E014DE85E890E011DE898123
:1005600090E019DE87E890E00BDE8AE890E008DE94
:1005700085E890E005DE8B8190E00DDE87E890E075
:100580000EC080E990E0FCDD812F90E004DE85E97B
:1005900090E0F6DD88E990E0F3DD8AE790E0F0DDB9
:1005A0008AE790E0EDDD9FE72AE186E09150204068
:1005B0008040E1F700C00000802FBDCFF894FFCF4E
:1005C0000F1027E80364000A00010048454C4C4F17
:1005D0005B54696E754448545D000D0A003E20006E
:1005E00048282529003D003B2000542843B029001D
:0C05F0004552525B005D3A00455252003B
:00000001FF
