:100000000EC028C0F3C126C025C083C223C022C0B1
:1000100021C020C01FC01EC01DC01CC00AC21124A8
:100020001FBECFE5D2E0DEBFCDBF10E0A0E6B0E05E
:10003000EEEAF5E002C005900D92A037B107D9F7BE
:1000400020E0A0E7B0E001C01D92A53BB207E1F7B8
:100050006FD2ABC2D5CF893A08F0895A8D3010F0F3
:100060008D50FCCF0895DF92EF92FF920F931F9374
:10007000CF93DF931F92CDB7DEB7F82E8C01D12C32
:10008000EE24E394802F8F19861760F4F801819194
:100090008F018E0D6983DFDFE82E8D0DDCDFD82E1A
:1000A0006981F0CF8D2D8295807F8E0D0F90DF912D
:1000B000CF911F910F91FF90EF90DF900895BA9A22
:1000C000C298BB9AC398089529E100002150E9F72E
:1000D000382FFC018E2F831B861708F036C0C29A7A
:1000E000C2988191C39A99E100009150E9F7C398B1
:1000F00099E100009150E9F798E080FF12C0C29AA0
:10010000C39829E100002150E9F7C39A29E10000D2
:100110002150E9F78695915081F7C398C29889E1FB
:100120000CC0C298C39A29E100002150E9F7C39896
:1001300029E100002150E9F7EDCF00008150E9F7F7
:1001400089E100008150E9F7C5CF0895BA9AC298B5
:10015000BB980895FC01C29AC298C29AC298C29AEA
:10016000C298B39963C020E030E0B39908C0203151
:1001700087E2380709F45EC02F5F3F4FF6CF233385
:10018000310508F455C02031374209F453C0C29AF2
:10019000C29880E070E0282F082E000C330B261741
:1001A00037070CF042C090E0B3990FC0B39905C077
:1001B000943611F09F5FFACF0895943609F43DC04C
:1001C00090E003C09931C1F19F5FB399FBCF9931A2
:1001D00099F19AE1B39902C09150E1F7C29AC2989D
:1001E00048E090E096955AE1B39B0DC0B39B02C0E6
:1001F0005150E1F7C2985AE1B3990EC05150E1F75E
:100200000BC0515011F0B39BFCCFC29A5AE1B39B83
:1002100002C05150E1F79068415021F7DF01A20F71
:10022000B31F9C93C2988F5FB6CF08958FEF089548
:100230008EEF08958DEF08958BEF08952FEF3AEA32
:10024000FC01318320836F73606462830895CF93D0
:10025000DF93EC016B834C8363E0029604DF8D83B4
:1002600066E0CE01DF91CF912FCF1F93CF93DF9325
:10027000EC0166E06FDF182F63E0CE010296F3DE3B
:100280009D81981305C08A818F738A83812F01C055
:1002900087EFDF91CF911F910895982F990F9A7A48
:1002A00086958575982B892F880F880F8C7C96955D
:1002B00096959373892B82950895F89412BE81E0E8
:1002C00083BF82E088BF89B7826089BF84E58DB92A
:1002D0008FEF8FB98EB9B99A809170008160809349
:1002E000700078940895309172002091710081E03F
:1002F00090E0321302C080E090E00895CF93C09167
:100300007200CF5FCF7190917100C917E1F3C5DF23
:10031000EC2FF0E0ED58FF4F8083C0937200809186
:10032000700080FD06C08091700082FDFCCFCF91EF
:10033000C4CFCF9108950F931F93CF93DF931F9254
:10034000CDB7DEB78C01662341F0F80181918F01B2
:100350006983D4DF69816150F6CF0F90DF91CF912F
:100360001F910F910895CF93DF93EC01899188231A
:1003700011F0C4DFFBCFDF91CF9108958DE690E0BF
:10038000F2CFF1DFFBCF88B3836088BB87B38C7F6C
:1003900087BB1DB880E28ABF8BB780628BBFA89AEB
:1003A0000895109293001092940010927100109290
:1003B0007200E9CF309194002091930081E090E0A9
:1003C000321302C080E090E00895909194008091F3
:1003D00093009817D1F3E0919300EF5FEF71E093F2
:1003E0009300F0E0EB56FF4F808157CF1F920F92A2
:1003F0000FB60F9211248F93B09915C085E782BF75
:1004000081E083BF82E088BF89B7826089BF84E5CD
:100410008DB988EF8EB98BB78F7D8BBF80917000BF
:100420008460809370008F910F900FBE0F901F908B
:1004300018951F920F920FB60F9211248F939F93CE
:10044000EF93FF938091700080FF32C08091700025
:1004500081FF0DC0809170008D7F809370008BEFC5
:100460008EB98F2D880F880F880F87601BC09091E1
:100470007200809171009817B9F0809170008260CD
:1004800080937000E0917100EF5FEF71E093710075
:10049000F0E0ED58FF4FF0808BEF8EB98F2D8695F1
:1004A000869580688FB92CC0809170008E7F10C0B7
:1004B000809170008B7F80937000E0919400EF5FDB
:1004C000EF7180919300E81306C0809170008860FE
:1004D0008093700007C0E09394008FB1F0E0EB567A
:1004E000FF4F808313BE88B3836088BB87B38C7F44
:1004F00087BB1DB880E28ABF8BB780628BBFA89A8A
:10050000FF91EF919F918F910F900FBE0F901F90D1
:1005100018951F920F920FB60F9211248F9382B7E6
:10052000865682BF8F910F900FBE0F901F90189527
:10053000CF93DF93CDB7DEB76F970FB6F894DEBFDA
:100540000FBECDBFBA9AC29801DE2BDF789480E649
:1005500090E009DF6EE1CE010196FCDD87FD14C05D
:10056000E1E0F0E0EC0FFD1FE80FF11D87FDFA95CB
:100570001082CE010196F7DE8DE690E0F4DE83EC8A
:1005800099E00197F1F708C0C29AC298C29AC2983E
:1005900089EF90E00197F1F700C0000089EF90E04B
:0E05A0000197F1F700C00000D5CFF894FFCF0F
:1005AE0048454C4C4F5B52494F4C69625D0D0A00F9
:00000001FF
