:100000000EC028C0B4C026C025C044C123C022C031
:1000100021C020C01FC01EC01DC01CC0CBC01124E9
:100020001FBECFE5D2E0DEBFCDBF10E0A0E6B0E05E
:10003000EAE8F4E002C005900D92A837B107D9F7BD
:1000400020E0A8E7B0E001C01D92AF3FB207E1F7A2
:1000500002D219C2D5CF71D090E0089577C0982F01
:10006000990F9A7A86958575982B892F880F880F16
:100070008C7C969596959373892B82950895F89428
:1000800012BE81E083BF82E088BF89B7826089BFEA
:1000900084E58DB98FEF8FB98EB9B99A80917800C8
:1000A0008160809378007894089520917A009091EF
:1000B000790081E0291301C080E00895CF93C091B9
:1000C0007A00CF5FCF7190917900C917E1F3C7DF54
:1000D000EC2FF0E0E558FF4F8083C0937A008091C9
:1000E000780080FD06C08091780082FDFCCFCF9122
:1000F000C6CFCF910895CF93DF93EC0189918823E8
:1001000011F0DCDFFBCFDF91CF91089588B38360DE
:1001100088BB87B38C7F87BB1DB880E28ABF8BB753
:1001200080628BBFA89A089510929B0010929C0049
:100130001092790010927A00E9CF20919C00909162
:100140009B0081E0291301C080E0089590919C00FC
:1001500080919B009817D1F3E0919B00EF5FEF71C6
:10016000E0939B00F0E0E356FF4F808178CF1F9231
:100170000F920FB60F9211248F93B09915C085E797
:1001800082BF81E083BF82E088BF89B7826089BF78
:1001900084E58DB988EF8EB98BB78F7D8BBF809149
:1001A00078008460809378008F910F900FBE0F903D
:1001B0001F9018951F920F920FB60F9211248F93D4
:1001C0009F93EF93FF938091780080FF32C08091DE
:1001D000780081FF0DC0809178008D7F809378003A
:1001E0008BEF8EB98F2D880F880F880F87601BC00B
:1001F00090917A00809179009817B9F080917800F9
:10020000826080937800E0917900EF5FEF71E09376
:100210007900F0E0E558FF4FF0808BEF8EB98F2D1D
:100220008695869580688FB92CC0809178008E7FE6
:1002300010C0809178008B7F80937800E0919C00C3
:10024000EF5FEF7180919B00E81306C0809178000A
:1002500088608093780007C0E0939C008FB1F0E045
:10026000E356FF4F808313BE88B3836088BB87B398
:100270008C7F87BB1DB880E28ABF8BB780628BBF43
:10028000A89AFF91EF919F918F910F900FBE0F90C1
:100290001F9018951F920F920FB60F9211248F93F3
:1002A00082B7865682BF8F910F900FBE0F901F901E
:1002B00018951092BD001092BE000895FACF90914B
:1002C000BE00E92FEF730E2E000CFF0BE154FF4F21
:1002D00080839F5F9093BE0008958091BE00282F79
:1002E000082E000C330B9091BD00291B310997FD9E
:1002F0003395203431051CF080548093BD009091DB
:10030000BD00E92FEF730E2E000CFF0BE154FF4FE1
:1003100080819F5F9093BD00089581E090E03091CF
:10032000BE002091BD00321302C080E090E008952D
:10033000EF92FF921F93CF93DF931F92CDB7DEB75B
:10034000182FE82EF92E998389DEF70120819981F3
:10035000281711F0E12EF92EF7012081281303C090
:10036000FFEFEF1AFF0AF70180818111ECCF81E0E6
:100370000F90DF91CF911F91FF90EF900895EF9232
:10038000FF921F93CF93DF931F92CDB7DEB7182F45
:10039000E82EF92E998362DE92DFF70120819981A0
:1003A000281711F0E12EF92EF7012081281303C040
:1003B000FFEFEF1AFF0AF70180818111EBCF81E097
:1003C0000F90DF91CF911F91FF90EF900895CF9202
:1003D000DF92FF920F931F93CF93DF9300D01F9272
:1003E000CDB7DEB7F82E6B01082F192F6A837B83F8
:1003F000998334DE64DFF80120816A817B819981F1
:10040000281711F00F2D192FF8012081281302C091
:100410000F5F1F4FF8012081222389F0F601208110
:1004200028136B01F6012081281303C0FFEFCF1AB8
:10043000DF0AF60180818111D9CF82E001C081E01D
:100440000F900F900F90DF91CF911F910F91FF9020
:10045000DF90CF90089532DF67DE789480E690E0F9
:100460004ADE6BDE8823E9F38FE690E088DF82E7DF
:1004700090E041DE52DF892B19F02FDF1FDEFACF2B
:0A0480008FE690E0EDCFF894FFCF77
:10048A0068656C6C6F5B75736975617274785D0D04
:08049A000A00474F543A20000C
:00000001FF
