:100000000EC028C0B0C026C025C040C123C022C039
:1000100021C020C01FC01EC01DC01CC0C7C01124ED
:100020001FBECFE5D2E0DEBFCDBF10E0A0E6B0E05E
:10003000E6EDF2E002C005900D92A237B107D9F7C4
:1000400020E0A2E7B0E001C01D92A73BB207E1F7B4
:100050002CD13FC1D5CF982F990F9A7A8695857567
:10006000982B892F880F880F8C7C96959695937383
:10007000892B82950895F89412BE81E083BF82E0B7
:1000800088BF89B7826089BF84E58DB98FEF8FB94A
:100090008EB9B99A809172008160809372007894D1
:1000A0000895209174009091730081E0291301C09C
:1000B00080E00895CF93C0917400CF5FCF7190918D
:1000C0007300C917E1F3C7DFEC2FF0E0EB58FF4FE7
:1000D0008083C09374008091720080FD06C080917F
:1000E000720082FDFCCFCF91C6CFCF910895CF9300
:1000F000DF93EC018991882311F0DCDFFBCFDF91E6
:10010000CF91089588B3836088BB87B38C7F87BB0A
:100110001DB880E28ABF8BB780628BBFA89A089512
:100120001092950010929600109273001092740035
:10013000E9CF209196009091950081E0291301C0AC
:1001400080E0089590919600809195009817D1F3E2
:10015000E0919500EF5FEF71E0939500F0E0E956D4
:10016000FF4F808178CF1F920F920FB60F9211240C
:100170008F93B09915C085E782BF81E083BF82E08D
:1001800088BF89B7826089BF84E58DB988EF8EB951
:100190008BB78F7D8BBF80917200846080937200DB
:1001A0008F910F900FBE0F901F9018951F920F9276
:1001B0000FB60F9211248F939F93EF93FF9380912B
:1001C000720080FF32C08091720081FF0DC080916B
:1001D00072008D7F809372008BEF8EB98F2D880F08
:1001E000880F880F87601BC0909174008091730006
:1001F0009817B9F080917200826080937200E0914C
:100200007300EF5FEF71E0937300F0E0EB58FF4F86
:10021000F0808BEF8EB98F2D8695869580688FB98B
:100220002CC0809172008E7F10C0809172008B7FF5
:1002300080937200E0919600EF5FEF7180919500DE
:10024000E81306C08091720088608093720007C036
:10025000E09396008FB1F0E0E956FF4F808313BE24
:1002600088B3836088BB87B38C7F87BB1DB880E26F
:100270008ABF8BB780628BBFA89AFF91EF919F9145
:100280008F910F900FBE0F901F9018951F920F9295
:100290000FB60F9211248F9382B7865682BF8F912B
:1002A0000F900FBE0F901F9018953ADF789480E65C
:1002B00090E01DDF3EDF8823E9F387E893E10197B3
:1002C000F1F700C0000035DF8823A1F33BDFF2DE49
:0602D000FACFF894FFCF05
:1002D60068656C6C6F5B75736975617274785D0DBA
:0202E6000A000C
:00000001FF
